:100000000C9434000C9451000C9451000C94510049
:100010000C9451000C9451000C9451000C9451001C
:100020000C9451000C9451000C9451000C9451000C
:100030000C9451000C9451000C9451000C945100FC
:100040000C9451000C9451000C9451000C945100EC
:100050000C9451000C9451000C9451000C945100DC
:100060000C9451000C94510011241FBECFEFD8E026
:10007000DEBFCDBF11E0A0E0B1E0ECE5F9E002C0E9
:1000800005900D92A231B107D9F721E0A2E1B1E0CC
:1000900001C01D92A033B207E1F70E9421010C9428
:1000A000AC040C9400009091C00095FFFCCF8093AD
:1000B000C60008958091C00087FFFCCF8091C600E4
:1000C0000895CF93DF93EC018991882319F00E9462
:1000D0005300FACFDF91CF91089589E190E090939A
:1000E000C5008093C4001092C000E1ECF0E0808174
:1000F0008861808386E08093C20008950F931F93E8
:10010000CF93DF93EC0197FF07C0D195C195D1093B
:1001100081E091E00E946100CE0168EE73E00E94F0
:10012000160280E3860F0E945300CE0164E670E061
:100130000E941602CB010AE010E0B8010E941602EC
:10014000805D0E945300CE01B8010E941602C82FA4
:10015000CB01B8010E941602805D0E94530080E32B
:100160008C0FDF91CF911F910F910C945300089544
:10017000EAE7F0E0808182688083EEE7F0E080814A
:1001800087608083089517B880E88AB908950C9431
:100190007E00CF93DF9380910001843018F081E0DE
:1001A0008093000180917A00806480937A0080912E
:1001B0007A0084FFFCCF80917800C091790082950D
:1001C00086958695837094E0C99FE0011124C80F3D
:1001D000D11D80910001823081F08330D1F08130D7
:1001E00019F583E091E00E946100CE0185509240B4
:1001F000909321018093200117C086E091E00E9436
:100200006100CE018D50924090931F0180931E019A
:100210000BC089E091E00E946100CE0188509240BD
:1002200090931D0180931C01CE010E947E0080915D
:1002300000018F5F8093000180E090E0DF91CF911B
:1002400008950E946D000E94B8000E94C300789437
:1002500080917A00806480937A00C9E2D0E001E066
:1002600010E880917C00816280937C0080917C000A
:100270008D7F80937C000E94C90089E00E9453001A
:1002800080917C00826280937C0080917C008E7FD4
:1002900080937C000E94C90089E00E9453008091F5
:1002A0007C00836280937C000E94C9008AE00E94E7
:1002B000530020912001309121018AE0F82EF29E16
:1002C000C001F39E900D1124BE010E9416028827E2
:1002D00077FD8095982F0E943E032DEC3CEC4CE17D
:1002E00051E40E94A3022B013C0160932A01709308
:1002F0002B0180932C0190932D0120911E013091B0
:100300001F01F29EC001F39E900D1124BE010E94B8
:100310001602882777FD8095982F0E943E032DECCA
:100320003CEC4CE151E40E94A3024B015C01609360
:100330002601709327018093280190932901209131
:100340001C0130911D01F29EC001F39E900D1124FD
:10035000BE010E941602882777FD8095982F0E9483
:100360003E032DEC3CEC4CE151E40E94A3026B01F6
:100370007C01609322017093230180932401909368
:100380002501A3019201C301B2010E94CE032B01FA
:100390003C01A5019401C501B4010E94CE039B015B
:1003A000AC01C301B2010E943F024B015C01A701F5
:1003B0009601C701B6010E94CE039B01AC01C501A5
:1003C000B4010E943F020E943504609318017093AB
:1003D000190180931A0190931B010E940B03CB011A
:1003E0000E947E0023E333E343E150E4609118016F
:1003F0007091190180911A0190911B010E94CA030A
:1004000087FD07C000932F018CE091E00E946100FE
:1004100002C010922F018AE00E94530080912F01A8
:10042000813011F41BB91DCF1BB81BCF97FB072ED2
:1004300016F4009407D077FD09D00E942A0207FC29
:1004400005D03EF4909581959F4F089570956195E4
:100450007F4F0895AA1BBB1B51E107C0AA1FBB1FFA
:10046000A617B70710F0A61BB70B881F991F5A9540
:10047000A9F780959095BC01CD0108955058BB27F0
:10048000AA270ED04DC13ED130F043D120F031F437
:100490009F3F11F41EF433C10EF4E095E7FB29C130
:1004A000E92F4FD180F3BA176207730784079507C6
:1004B00018F071F49EF567C10EF4E0950B2EBA2F7B
:1004C000A02D0B01B90190010C01CA01A00111245A
:1004D000FF27591B99F0593F50F4503E68F11A1606
:1004E000F040A22F232F342F4427585FF3CF469597
:1004F00037952795A795F0405395C9F77EF41F16B9
:10050000BA0B620B730B840BBAF09150A1F0FF0F82
:10051000BB1F661F771F881FC2F70EC0BA0F621F6E
:10052000731F841F48F4879577956795B795F7955E
:100530009E3F08F0B3CF9395880F08F09927EE0FF0
:100540009795879508950CD0EBC0E3D040F0DAD0B2
:1005500030F021F45F3F19F0CCC0511115C1CFC06C
:10056000F0D098F39923C9F35523B1F3951B550B9C
:10057000BB27AA2762177307840738F09F5F5F4F76
:10058000220F331F441FAA1FA9F333D00E2E3AF0B7
:10059000E0E830D091505040E695001CCAF729D0D1
:1005A000FE2F27D0660F771F881FBB1F2617370720
:1005B0004807AB07B0E809F0BB0B802DBF01FF2750
:1005C00093585F4F2AF09E3F510568F092C0DCC0FF
:1005D0005F3FECF3983EDCF3869577956795B7958A
:1005E000F7959F5FC9F7880F911D9695879597F9A5
:1005F0000895E1E0660F771F881FBB1F621773071E
:100600008407BA0720F0621B730B840BBA0BEE1F32
:1006100088F7E095089504D06894B111B5C00895A5
:1006200098D088F09F5790F0B92F9927B751A0F034
:10063000D1F0660F771F881F991F1AF0BA95C9F776
:1006400012C0B13081F09FD0B1E008959CC0672FF7
:10065000782F8827B85F39F0B93FCCF38695779526
:100660006795B395D9F73EF490958095709561950F
:100670007F4F8F4F9F4F0895E89409C097FB3EF43A
:1006800090958095709561957F4F8F4F9F4F9923DF
:10069000A9F0F92F96E9BB279395F695879577955D
:1006A0006795B795F111F8CFFAF4BB0F11F460FF1D
:1006B0001BC06F5F7F4F8F4F9F4F16C0882311F075
:1006C00096E911C0772321F09EE8872F762F05C089
:1006D000662371F096E8862F70E060E02AF09A9524
:1006E000660F771F881FDAF7880F9695879597F919
:1006F000089597F99F6780E870E060E008959FEFA4
:1007000080EC089500240A941616170618060906A8
:10071000089500240A941216130614060506089577
:10072000092E0394000C11F4882352F0BB0F40F4FF
:10073000BF2B11F460FF04C06F5F7F4F8F4F9F4F3F
:10074000089557FD9058440F551F59F05F3F71F0C1
:100750004795880F97FB991F61F09F3F79F0879528
:100760000895121613061406551FF2CF4695F1DFB1
:1007700008C0161617061806991FF1CF8695710541
:10078000610508940895E894BB2766277727CB0175
:1007900097F90895A8D008F48FEF08950BD0C0CF33
:1007A000B1DF28F0B6DF18F0952309F0A2CFA7CF6C
:1007B0001124EACFC6DFA0F3959FD1F3950F50E047
:1007C000551F629FF001729FBB27F00DB11D639F03
:1007D000AA27F00DB11DAA1F649F6627B00DA11DA9
:1007E000661F829F2227B00DA11D621F739FB00D4F
:1007F000A11D621F839FA00D611D221F749F3327BF
:10080000A00D611D231F849F600D211D822F762F57
:100810006A2F11249F5750408AF0E1F088234AF054
:10082000EE0FFF1FBB1F661F771F881F91505040A0
:10083000A9F79E3F510570F05CCFA6CF5F3FECF368
:10084000983EDCF3869577956795B795F795E7958C
:100850009F5FC1F7FE2B880F911D9695879597F99D
:10086000089511F40EF44BCF62C073DFD0F39923D7
:10087000D9F3CEF39F57550B87FF67D00024A0E62E
:1008800040EA900180585695979528F4805C660F51
:10089000771F881F20F026173707480730F4621BA0
:1008A000730B840B202931294A2BA69517940794A2
:1008B000202531254A2758F7660F771F881F20F01B
:1008C00026173707480730F4620B730B840B200D93
:1008D000311D411DA09581F7B901842F9158880FD2
:1008E000969587950895990F0008550FAA0BE0E893
:1008F000FEEF16161706E807F907C0F012161306E2
:10090000E407F50798F0621B730B840B950B39F421
:100910000A2661F0232B242B252B21F408950A2687
:1009200009F4A140A6958FEF811D811D08959F3F79
:1009300031F0915020F4879577956795B795880F9A
:10094000911D9695879597F9089591505040660F9F
:0C095000771F881FD2F70895F894FFCF9E
:10095C00012D00583A00593A005A3A006163636518
:02096C006C001D
:00000001FF
